:020000040020DA
:10400000F87F00201D412000017B2000017B200063
:10401000017B2000017B2000017B2000017B200030
:10402000017B2000017B2000017B2000337B2000EE
:10403000017B2000017B2000017B2000017B200010
:10404000017B2000017B2000017B2000017B200000
:10405000017B2000017B2000017B2000017B2000F0
:10406000017B2000017B2000017B2000017B2000E0
:10407000017B2000017B2000017B2000017B2000D0
:10408000017B2000017B2000017B2000017B2000C0
:10409000017B2000017B2000017B2000017B2000B0
:1040A000017B2000017B2000017B2000017B2000A0
:1040B000017B2000017B2000017B2000017B200090
:1040C000017B2000017B2000017B2000017B200080
:1040D000017B2000017B2000017B2000017B200070
:1040E000017B2000017B2000017B2000017B200060
:1040F000017B2000017B200010B5074C54F8043CE4
:10410000B3F1FF3F06D0043C984754F8043DB3F1A7
:0C411000FF3FF9D110BD00BF88862000E1
:10411C0040400949094A086004319142FBDBFFF732
:10412C00E5FF00BF00F0D0F900F03AFC01B404F058
:10413C00D7F800F05DFF000004000020F80200201A
:10414C00F0B58B6981B004460D461746002B32D072
:10415C0023602B4653F8042B04F1200C22610FCB67
:10416C008CE80F000026EA696661A661E4612663AB
:10417C00666305F11401204601F0BCFFEB69A268EF
:10418C006660D218A2F140034FF0807142F8401CD7
:10419C000A4A01A942F001029A6347F00102DA636C
:1041AC00204641F8047DE36069464FF4406202F01A
:1041BC0017FA01B0F0BD024B1B68C9E7F14F2000A4
:1041CC008C010020294B30B5186844682246002C1D
:1041DC0047D063684B2B07D83C2B11D0D268002AF0
:1041EC003FD053684B2BF7D93C3B5360C1683C39EB
:1041FC00C16053B112683C21D018D150043030BD8D
:10420C0000235360C1683C39C160016801290BD09F
:10421C00956875B1D468BCB1EC60D2F80CC00139AA
:10422C00CCF808500160E5E7002141608160016035
:10423C00E0E70029DED0D4F80CC00139C0F804C086
:10424C000160CCF80850D5E70029D3D0D0F808C0CD
:10425C000139DCF808C00160C0F808C0CCF80C408B
:10426C00C8E700F025FF0020C9E700BF6000002070
:10427C00F0B592B000241094109B4FF4406701935A
:10428C000094049403940294059406940797FFF702
:10429C0099FF44F23012C0F2200269460546FFF73E
:1042AC004FFF6FF000431193119B01260993089661
:1042BC000C940B940A940D940E940F97FFF782FFB5
:1042CC0046F29D32C0F2200208A9FFF739FF40F2F6
:1042DC00AC13C2F200031E70E86803F06BFE12B060
:1042EC00F0BD00BF2DE9F0076B4E7368002B76D044
:1042FC005968002973D0DFF8A481B2460027002248
:10430C00D8F800505A60F268521AF2605A68BAB97A
:10431C00DAF80040012C76D09868002800F09B80D9
:10432C00D3F80CC0BCF1000F00F0A580C0F80CC095
:10433C00DA689060DAF80020013ACAF800205A686E
:10434C001C68A41849D00F2947D961602460A76064
:10435C00E760EB6859186B68E960D4F800C06068D6
:10436C00002B40D0D3F80090604448450CBF1A464F
:10437C001A4604D0D26812B111688842FAD1596831
:10438C008944CC4507D0DB68002B2BD018685968C2
:10439C0041188C45F7D119461346CBB160685A6861
:1043AC00821862602868012802BF6F60AF602F60BE
:1043BC000ED09A68002A2ED0D3F80CC0BCF1000F96
:1043CC0033D0C2F80CC0DB689A602B68013B2B60C1
:1043DC0019B14A686368D3184B60736873B9BDE848
:1043EC00F007704713462968002929D1A160E160C4
:1043FC002A686C600132AC602A60CEE759680029EB
:10440C007FF47DAFEBE7CAF80420CAF80820CAF89D
:10441C0000205A6894E70028DAD06B68DB686B6080
:10442C009A602B68013B2B60D2E70028D0D0AB6898
:10443C009B68AB60C3F80CC02B68013B2B60C7E7D3
:10444C00AA683946D460AA68E760A2602A68AC60A2
:10445C0001322A60A1E7002C3FF472AFDAF80400B5
:10446C00C068CAF804008260DAF80020013ACAF881
:10447C0000205A6864E7002C3FF462AFDAF80800B9
:10448C008068CAF80800C260DAF80020013ACAF85D
:10449C0000205A6854E700BFE802002060000020AA
:1044AC0040F21803C2F200030A204FF0FF31002241
:1044BC00596018601A7240F20C03C2F20003596082
:1044CC0018601A72704700BF00B501F065F800BDA6
:1044DC0040F22403C2F200030A221A604FF0FF32AA
:1044EC005A6000221A7270472DE9F04F604B97B05A
:1044FC0011AC0FCB84E80F005E4B1868D0F804C0E9
:10450C0065463DB16B68272B08D8182B06D0ED6893
:10451C00002DF7D100F0CCFDA8461EE0183B6B60D7
:10452C00C368183BC3606B6883B90268012A00F04A
:10453C009A80A968002900F08B80EE68002E7DD04F
:10454C00CE60EB68013A026099606B682A681821AA
:10455C0002EB0308D15008F10408474B0026C8F8B9
:10456C000030464BC8F80460C8F80860C8F80C6006
:10457C001B68434DC8F81030424800F041FD0A2733
:10458C00414800F03DFD41482F6000F039FD0DF130
:10459C00040A48F28041C0F21E01524633462846B6
:1045AC0000F08AFD17AA131803F8586C504600F057
:1045BC0027FD374800F024FD46F2676A324848F27E
:1045CC00804900F01DFD0DF1580B2F60013EC6F225
:1045DC00666AC0F21E092F4800F012FD204600F05A
:1045EC000FFD294800F00CFD2F608DF858608DF8F8
:1045FC00596010235946284AD8F8100000932346D6
:10460C0003F0F8F9254800F0FBFC1F4800F0F8FC1B
:10461C009DF844302F602F3B8AFB0321DA17C2EB45
:10462C00A10202EB820252009B1A303315A88DF8BE
:10463C004430CDF8549001F027FCCCE7002A85D00B
:10464C008168013A896802608160CB606B687DE7A4
:10465C00002A3FF47BAFDCF80C10013A0260416099
:10466C008B606B6872E70360436083606B686DE717
:10467C0010842000600000201C832000BC0100205E
:10468C0024000020AC83200064832000C48320001D
:10469C00E4832000F4832000508320000884200051
:1046AC0070B5B74D286843683BB15A68272A08D8BB
:1046BC00182A06D0DB68002BF7D100F0F9FC002398
:1046CC001EE0183A5A60C268183AC2605A6892B929
:1046DC000468012C00F0E8809968002900F00A8138
:1046EC00DE68002E00F03581CE60DA6891600268D9
:1046FC00013A02605A68196818208B1888500433E4
:10470C0002221A7003225A7008225A604BF22002BD
:10471C00C4F20D02DA6000221A614BF22042C4F29C
:10472C000D0211684FF0040C21F0080111600121F9
:10473C004BF200429960C4F20D021068914C40F0AB
:10474C000800106018785A78043002EBC00044F26C
:10475C000002C4F20D0242F820C0187849F21C4243
:10476C000003C4F20D028218586810601878D3F850
:10477C0004E04FEA003CC0000EFA00F049F2187257
:10478C00C4F20D026244D2F800C023612CEA00008E
:10479C00106021739A68022A00F09080DB68FF2277
:1047AC001A60794800F02CFC0A26784800F028FCA6
:1047BC007748266000F024FC744800F021FC28683F
:1047CC00266043683BB15A68272A08D8182A06D0B5
:1047DC00DB68002BF7D100F06BFC00241DE0183ACD
:1047EC005A60C268183AC2605A688AB90468012CC7
:1047FC005FD09968002900F09480DE68002E00F0EC
:10480C009C80CE60DA6891600268013A02605A6856
:10481C001B6818219C189950043400236360A36012
:10482C00E3605C4B23605C4B1B6823612868436826
:10483C003BB15A682B2A08D81C2A06D0DB68002BFF
:10484C00F7D100F035FC00211BE01C3A5A60C2681D
:10485C001C3AC2605A687AB90568012D1FD0996854
:10486C00002953D0DE68002E7FD0CE60DA689160CC
:10487C000268013A02605A681B681C20991898500B
:10488C00043100230B72CB60444B2A2249600B602D
:10489C000A744C61206903681B68984770BD4260BC
:1048AC00826002605A68E7E74260826002605A6880
:1048BC0021E74260826002605A68A9E7197849F2E0
:1048CC0000420903C4F20D028A181068596840EAC4
:1048DC0001011160DA68FF211160197849F2004278
:1048EC000903C4F20D028A1811685B6821EA0303FC
:1048FC00136056E7002C3FF4FEAE4168C968416076
:10490C008A600268013A02605A68F4E6002DB3D05E
:10491C004168C96841608A600268013A02605A685D
:10492C00AAE7002C3FF474AF4168C96841608A6003
:10493C000268013A02605A686AE7002C3FF468AFDB
:10494C00816889688160CA600268013A02605A68AD
:10495C005EE7002C3FF4CFAE816889688160CA6045
:10496C000268013A02605A68C5E6002D84D081685D
:10497C0089688160CA600268013A02605A687BE704
:10498C00600000202400002020842000648320008C
:10499C003C8420001C832000BC0100204C832000A0
:1049AC0000B5064800F02CFB054800F029FB054B30
:1049BC000A221A60FFF774FEFEE700BF7C84200019
:1049CC0064832000240000202DE9F001D4B20C7285
:1049DC0046680023CB6049600F1D002E22D0D0F812
:1049EC00088098F80430A34222D8D8F808308BB14C
:1049FC00454693F804C0A44507D9CDB10136AF6044
:104A0C004660CB60BDE8F00170479A6812B11D4654
:104A1C001346EEE7C36801369F600023CB60466007
:104A2C00C760EFE70123CE6043608760C760E9E7AA
:104A3C000136C1F80C8046608760E3E710B4446827
:104A4C00012C17D0836801F1040C9C4517D04BB195
:104A5C009A682AB1944503D013469268002AF9D17A
:104A6C00CA689A60C268944508BFC360013C446040
:104A7C0010BC704700238360C3604360F8E7002CD0
:104A8C00F6D0CB68013C83604460F1E7F0B58468F4
:104A9C0006461746CDB29CB1002001E0A46874B163
:104AAC002379AB42FAD12068314603682A46D3F801
:104ABC0000C03B46E047A4680120002CF0D1F0BDBB
:104ACC002046FCE78368C9B27BB1002001E09B68FB
:104ADC0043B193F804C08C45F9D122B918689B688E
:104AEC00002BF6D17047013AF1E71846FAE700BF00
:104AFC002DE9F047604E90B01C4680465F48D7B217
:104B0C0000F07EFA21466A46304600F01BFB10AAE4
:104B1C001018002300F8403C684600F071FA584821
:104B2C0000F06EFA0A23336098F810306D46BB42E1
:104B3C0002D010B0BDE8F0873269337B916883F006
:104B4C0001030229337376D0D2681902CB1A136091
:104B5C004B4800F055FA0A274A48376000F050FAE3
:104B6C00474800F04DFA4848376000F049FAD4F84D
:104B7C008C106A460023404800F09EFA10AA1318C5
:104B8C004FF0000903F8409C684600F039FA3F48A2
:104B9C0000F036FA102333600127DFF8DCA0E319AC
:104BAC00D9796A460023504600F086FA10AB1818E3
:104BBC0000F8409C684600F023FA012F36D038D913
:104BCC000A273348CAF8007000F01AFA2C4800F093
:104BDC0017FACAF80070D4F88C30A3B100231F4622
:104BEC009A46E3189B7A68468DF800308DF801A040
:104BFC0000F006FA274800F003FAD4F88C200137AD
:104C0C00BA423B46EDD81E4800F0FAF90A251D4879
:104C1C00356000F0F5F91A4800F0F2F9D8F81430C4
:104C2C0021461869356001F0FBFE82E71A4800F056
:104C3C00E7F90137B1E7107849F200410003C4F2FB
:104C4C000D014118D1F800C050684CEA000CC1F8B5
:104C5C0000C0D1684FEA032CC3EB0C030B60127835
:104C6C0049F200431203C4F20D03D3181A6822EA66
:104C7C00000018606CE700BF240000205483200063
:104C8C006483200068832000808320008C832000B4
:104C9C00A883200004842000A4832000F0B500F039
:104CAC0067FAB7494B68002B00F053815A6846F2FB
:104CBC000300824209D8B2F5C04F06D0DB68002B46
:104CCC0000F047815A688242F5D9A2F5C0425A6079
:104CDC00CA68AB48A2F5C042CA605A6892B9046867
:104CEC00012C00F0E9809968002900F01881DD683A
:104CFC00002D00F02281CD60DA6891600268013AE3
:104D0C0002605A681968DFF87CC200238C18CCF852
:104D1C000030CCF80430CCF80830CCF80C304CD047
:104D2C004FF4C0408C506060A360E360DCF80C3042
:104D3C001B18CCF80C30DCF8043051F802E0606839
:104D4C00002B00F0A1801D687044A8420CBF1A46CD
:104D5C001A4604D0D26812B111688842FAD1596847
:104D6C006D18AE4508D0DB68002B00F08C801868FD
:104D7C00596841188E45F6D119461346C3B160687F
:104D8C005A6882186260DCF80000012800F08C8000
:104D9C009A68002A00F09580DD68002D00F0A08054
:104DAC00D560DB689A60DCF80030013BCCF8003051
:104DBC0019B14A686368D3184B60734BC3F800C0D1
:104DCC0000F00EFB00F0EAFB704B93E8600043F23E
:104DDC004803C4F20303D3F800C06D4B1B681A7D63
:104DEC00002A40F0A8805C7D003C18BF012449F2E9
:104DFC000040C4F20D000368012223F0010303609C
:104E0C0044F28003C4F20D0347F208001A60C4F2A6
:104E1C000D00802347F200020360C4F20D021368F8
:104E2C0013F0800FFBD047F21000C4F20D0007689E
:104E3C0047F20C00C4F20D00036844F66D620020CA
:104E4C002946C4F2C61210EB0C0541F1000605FB15
:104E5C0002F101F540513931B1F1FF3F28BF013169
:104E6C0003EB072784EA010302FB03F303F540532A
:104E7C00393347F34622B3F1FF3F28BF0133534088
:104E8C00444A1360F0BD1346DCF80010002936D1FB
:104E9C00A160E160DCF80020CCF804400132CCF8D1
:104EAC000840CCF8002069E70023CCF80430CCF89B
:104EBC000830CCF800307BE74260826002605A68B0
:104ECC0020E700283FF474AFDCF80430DB68CCF842
:104EDC0004309A60DCF80030013BCCF8003067E716
:104EEC0000283FF465AFDCF808309B68CCF808303C
:104EFC00DD60DCF80030013BCCF8003058E7DCF822
:104F0C0008200021D460DCF80820E160A260DCF805
:104F1C000020CCF808400132CCF800202EE7002C01
:104F2C003FF4F0AE4168C96841608A600268013A9A
:104F3C0002605A68E6E6012459E7002C3FF4E2AE21
:104F4C00816889688160CA600268013A02605A68A7
:104F5C00D8E6114C01232372104800F051F8104888
:104F6C0000F04EF8DFF81CC00A2323600023CCF8B5
:104F7C000030CCF80430CCF80830CCF80C301CE7FE
:104F8C00E802002050000020600000206800002093
:104F9C00BC01002064000020380000208884200020
:104FAC006483200000B500F0BBF940F2B41300227A
:104FBC00C2F200031A6040F2B013C2F200031A608E
:104FCC0040F24403C2F200030A204FF0FF31596053
:104FDC0018601A7240F23803C2F20003596018606C
:104FEC001A7200BD00B5004601F0D4FB00BD00BF35
:104FFC0000B501F0CFFB00BD00B502F0EDFD00BD2A
:10500C002DE9F045002507467C5D1C4EAA46DFF8CD
:10501C00708084B1092C29D00A2C18D03368204612
:10502C000133336002F038FE33684F2B05DC013559
:10503C007C5D002CEED1BDE8F0850D2002F02CFE3D
:10504C000A2002F029FE0135C6F800A0F0E70D2079
:10505C0002F022FE204602F01FFED8F80030C6F8FF
:10506C0000A00133C8F800300135E1E7204602F01A
:10507C0013FE3368013508333360D9E7B0010020E3
:10508C00B401002010B548F2A04040F238040123CE
:10509C00C2F20004C0F220002372FFF7B1FF48F205
:1050AC006430C0F22000FFF7ABFF0A23236010BD71
:1050BC0000B5FFF7A1FF00BD70B400293BD0B1F5DE
:1050CC00807F1BD9D0F800C0BCF1080F14BF00249E
:1050DC000124BCF1100F08BF44F0010484B14FF05F
:1050EC00300C02F803C0D0F800C00133BCF1100F33
:1050FC0006D14FF0780C02F803C00133D0F800C091
:10510C000C465D1CB4FBFCF41E462B46002CF8D15F
:10511C000B4C9219B1FBFCF30CFB131C14F80C3068
:10512C0002F80139D0F800C0B1FBFCF10029F1D133
:10513C00284670BC70473021D154581CF9E700BF89
:10514C00BC842000302310B41370084C78235370A7
:10515C00072301F00F0C14F80CC0D0180909013BFF
:10516C0080F802C0F5D20A2010BC7047BC84200025
:10517C0000B500F003F800F095F800BDDFF81CC195
:10518C0047F2F832C2F20002CCEB020270B4002AF1
:10519C004AD00023424DCCF800C0CCF80420CCF807
:1051AC000830CCF80C30EB686446D318EB606B68B5
:1051BC00002B3CD01E680CEB8200B0420CBF1A4690
:1051CC001A4604D0D26812B111688842FAD15968D3
:1051DC0006EB8106B44208D0DB68002B26D0586859
:1051EC00196801EB80018C42F6D119461346ABB11C
:1051FC00DCF804005A688218CCF804202C68284A81
:10520C00012C23D09868002825D0DD68002D3AD0D9
:10521C00C560DB6898601368013B136021B14A6874
:10522C00DCF80430D3184B6070BC704713462A6806
:10523C001B48D2B90121CCF80820CCF80C20016015
:10524C00C0F804C0C0F808C01146D0E70023536072
:10525C0093601360E2E7002CE0D05368DB68536086
:10526C0098601368013B1360D8E781680132C1F87C
:10527C000CC08168CCF808100021CCF80C10C0F8D8
:10528C0008C00260B3E7002CC8D093689B68936099
:10529C00DD601368013B1360C0E700BFF80200201B
:1052AC00E802002043F20C03C4F203031A68122034
:1052BC0022F001021A6042F20802C4F20D021168D7
:1052CC0041F00801116042F20C02C4F20D021168A7
:1052DC0041F00801116043F200020021C4F2030204
:1052EC00116043F20402C4F20302106043F228027C
:1052FC00C4F203024FF0FF30106043F23802C4F2E4
:10530C000302116043F21802C4F20302116841F067
:10531C00010111601A6842F001021A60704700BF67
:10532C004CF22043C4F20D031A6822F0C0021A603A
:10533C004CF20043C4F20D031A6822F0C0021A604A
:10534C0044F2F8030122C4F20D031A6044F2FC0388
:10535C00C4F20D031A6042F20002C4F20D0211688D
:10536C004FF6F873CFF6DC6301EA030343F408133A
:10537C0042F204011360C4F20D010A6840F200030A
:10538C00C0F2011302EA0303002BF6D142F2000330
:10539C00C4F20D031A6822F4E0621A6042F20402AD
:1053AC00C4F20D02136813F0806FFBD0704700BF7E
:1053BC004EF61453CEF200031A6842F001021A6042
:1053CC0042F29803C4F20D031A6842F001021A600B
:1053DC004EF60853CEF200034FF401121A607047D8
:1053EC0000B5FFF7E5FF00F029FB00F00BF800F02B
:1053FC008DF800F001F800BD00B5002000F04CFA6B
:10540C0000BD00BF4EF210034EF21802CEF20003A4
:10541C000021CEF20002196011604EF21402CEF29D
:10542C0000024FF4FA41116006221A6047F67141EE
:10543C0040F2C412C2F20002C0F22001D1631A6819
:10544C0042F001021A60704740F276030022C2F269
:10545C0000031A7040F27503C2F200031A7040F296
:10546C007003C2F200030221196040F2D823C2F289
:10547C0000031A6040F2E423C2F2000349F2380C34
:10548C001A60C4F2080C032349F2400049F24C01A3
:10549C00CCF8003030B4C4F208000424C4F2080183
:1054AC0049F244030460C4F208030A601D6845F025
:1054BC0040051D601D6845F008051D601D6845F020
:1054CC0008051D602023CCF8004002600B6049F2F7
:1054DC005003C4F208031A6842F080021A601A687A
:1054EC0042F010021A6049F21C03C4F208030122B4
:1054FC001A6049F22403C4F208031A6049F22C031F
:10550C00C4F208031C6030BC704700BF4BF2204350
:10551C00C4F20D031A6800B522F004021A604BF2B3
:10552C000043C4F20D031A6842F004021A604BF2F5
:10553C001003C4F20D03FF221A6049F23C02C4F2BC
:10554C000802136843F001031360136843F002036D
:10555C001360136813F0800FFBD049F20403C4F2FC
:10556C0008031A6822F001021A60FFF76DFF074B5F
:10557C0001221A60064A074BC3F8F0204EF20413BE
:10558C00CEF200034FF480521A6000BD7000002070
:10559C00457E2000C4010020704700BF00B500F01C
:1055AC0093FA00F001F800BD704700BFB74B2DE92E
:1055BC00F041036042F2A803C4F20D031A680026FE
:1055CC0042F001021A6042F2AC03C4F20D031A68F5
:1055DC00AF4F42F001021A6042F2B003C4F20D0365
:1055EC001A68466042F001021A6048F28C63C4F2F9
:1055FC0008031E6048F29063C4F208031E6048F270
:10560C005863C4F20803F8221A6048F2E873C4F233
:10561C00080309221A6048F2C863C4F20803152271
:10562C001A6048F60403C4F208030B221A6048F20D
:10563C00B863C4F2080301221A6048F63803C4F2B6
:10564C000803EE221A60ED221A6048F28C53C4F261
:10565C0008031E6048F25063FF22C4F208031A606C
:10566C0048F24063C4F208031A6048F29473C4F21F
:10567C0008031A6048F20063C4F208031A688660D3
:10568C0042F001021A6048F63403C4F208031E60AB
:10569C0048F63003C4F208031E6048F62C03C4F22B
:1056AC0008031E607B4BC66003600161C661066225
:1056BC000446466235468662C66206634663866366
:1056CC00C663066646664FF0A408386843683BB16B
:1056DC005A68B32A08D8A42A06D0DB68002BF7D165
:1056EC00FFF7E6FC002323E0A43A5A60C268A43A10
:1056FC00C2605A68BAB9D0F800C0BCF1010F00F012
:10570C00A5809968002900F0A680D3F80CE0BEF1C2
:10571C00000F00F0AD80C1F80CE0DA68916002680F
:10572C00013A02605A6819688B1841F802800433F8
:10573C00A2190436202E83F88050C3F88450C3F885
:10574C008C50C3F89030C3F89450C3F89830C3F819
:10575C009C501364B9D1237D48F2D052C4F2080294
:10576C001360617D48F2D453C4F2080319601268C7
:10577C0048F2246622751B68C4F20806637548F269
:10578C000063C4F208031A68204642F001021A6052
:10579C0048F20463C4F208031A6822F020021A606B
:1057AC0048F20863C4F208031A6842F001021A6056
:1057BC0033681F2243F0400333600F23A36148F288
:1057CC003C63C4F208031A60336843F0200333606F
:1057DC0001F034F948F22863C4F208031A6842F065
:1057EC0001021A6048F28C63C4F2080304221A60A6
:1057FC0048F29063C4F208031D6048F29463C4F24B
:10580C0008031D6042F2A803C4F20D031A6842F0AB
:10581C0001021A6042F2AC03C4F20D031A6842F0A2
:10582C0001021A6042F2B003C4F20D031A6842F08E
:10583C0001021A603368E32223F00C03336048F64C
:10584C003803C4F208031A60BDE8F081426082603C
:10585C0002605A6867E7BCF1000F3FF464AF41681F
:10586C00C96841608A600268013A02605A685AE766
:10587C00BCF1000F3FF457AF816889688160CA6042
:10588C000268013A02605A684DE700BF3483200079
:10589C00600000203085200070B504462F4B18683E
:1058AC0041680B46002954D04A687B2A07D86C2AD9
:1058BC0005D0DB68002B4CD05A687B2AF7D96C3AA0
:1058CC005A60C2686C3AC2605A6872B90568012D98
:1058DC0027D09E68002E29D0D96800292FD0F160DE
:1058EC00DA68013D056096605A681B686C219D184A
:1058FC009950043521462846FFF758FE184B194A93
:10590C0043F8345003EBC4042A236360164BC3F8EA
:10591C00A8204EF20013CEF200034FF080621A6002
:10592C0070BD0260426082605A68DEE7002DDCD0F8
:10593C00C968013D056041608A605A68D5E7002D51
:10594C00D3D08168013D896805608160CA605A685E
:10595C00CBE7FFF7ADFB0025CCE700BF60000020D4
:10596C00BC010020716B2000C401002040F26803D0
:10597C00C2F200034DF804BD93E806004FF0010B92
:10598C0011EB0B014FF0000C42EB0C0283E806000C
:10599C005DF804BB704700BF49F21803C4F208035A
:1059AC001A6840F2CC23C2F20003196841EA0202E1
:1059BC001A6049F20803C4F208031A6840F2D023B3
:1059CC00C2F20003196841EA02021A6049F210039C
:1059DC00C4F208031A6840F2D423C2F20003196817
:1059EC0041EA02021A6070470368232B0DD0252B65
:1059FC0013D0272B19D0332B01BF43F22403C4F24D
:105A0C0003034FF0FF321A60704740F22403C4F2D4
:105A1C0003034FF0FF321A60F6E741F22403C4F29D
:105A2C0003034FF0FF321A60EEE742F22403C4F294
:105A3C0003034FF0FF321A60E6E700BF72B64EF276
:105A4C0080134FF0FF32CEF200031A604EF2841333
:105A5C00CEF200031A601549154A0023CA500433CC
:105A6C00B3F5807FFAD10023DFF848C018464CF814
:105A7C0003000433B3F5807F0E4AF8D10E4BC2F805
:105A8C008C30C2F89430C2F89C30C2F8CC300B4B3E
:105A9C00C2F8F0300A4B0822CB600A4BC1F8CC306C
:105AAC004EF20413CEF200031A607047C4010020BA
:105ABC00957B200078000020F5592000A559200086
:105ACC00997B20007959200010B5314B186841683A
:105ADC000B46002957D04A68272A07D8182A05D020
:105AEC00DB68002B4FD05A68272AF7D9183A5A602E
:105AFC00C268183AC2605A6892B9D0F800C0BCF1BA
:105B0C00010F1FD09C68002C24D0D96800292DD0FF
:105B1C00E160DA680CF1FF3CC0F800C094605A6890
:105B2C00196818208B18885004331A4901221961FE
:105B3C0019491A605A601A72486840B1DA60174AFB
:105B4C00136010BD0260426082605A68E8E74B60E7
:105B5C005A68F3E7BCF1000FE2D0C9680CF1FF3CC6
:105B6C00C0F800C041608A605A68D9E7BCF1000FE8
:105B7C00D6D081680CF1FF3C8968C0F800C0816008
:105B8C00CA605A68CCE7FFF793FA0023CDE700BF51
:105B9C0060000020055C2000C40200207C01002075
:105BAC00014B0360704700BF5C852000014B036014
:105BBC00704700BF5C85200040F28013C2F20003E6
:105BCC0000221A605A609A60704700BF00B54068A6
:105BDC0000F084F900BD00BF024B00B5036002F079
:105BEC00B5FA00BD5C852000024B00B5036002F0E5
:105BFC00ADFA00BD5C852000F0B572B63F4B1A685B
:105C0C0001321A603E4A13682BB15168486801385A
:105C1C000028486007DD002362B61BB15868036892
:105C2C009B689847F0BD012B3CD0CB68002053609B
:105C3C0098601368013B1360CB6823B1D3F804C0A0
:105C4C004868604458600B689868B0F1FF3F03D017
:105C5C00013898600028DFD0D3F80CC02848C1F870
:105C6C0004C01668002E35D047687C68A445B8BFC0
:105C7C003D4609DBF868F8B1C4EB0C0CC1F804C064
:105C8C0044680546A44514DAA868002829D0CCEB52
:105C9C00040C0136C5F804C0C160A960CD608860F1
:105CAC001660B9E70023536093601368013B1360DF
:105CBC00C2E7C0680028DFD19068C4EB0C0CC1604F
:105CCC008860C1F804C00020C8609160116801317F
:105CDC001160A1E701228E60CE600260416081609C
:105CEC009AE7CCEB040CC5F804C08860CF60B960AF
:105CFC0051601168013111608EE700BF78010020FE
:105D0C008001002030B472B6DFF880C0DCF80410DB
:105D1C00E9B10B68984218BF0B462BD0DB68B3B1C6
:105D2C001A689042FAD1DCF80000184C012811D006
:105D3C009D68002D20D0DA6892B1EA60DA680138EB
:105D4C00956020601AB151685B68CB18536062B6DD
:105D5C0030BC704700226260A2602260DA68F1E712
:105D6C000028F4D0A168013889682060A160CA605D
:105D7C00DA68E7E70B46D6E708B9DA68E2E7CA68FB
:105D8C000138626020609560DA68DBE780010020F2
:105D9C0083603B4BD1F800C01B68C0F800C05B6847
:105DAC004FF47A7CBCFBF3F344F2402CC0F20F0CA2
:105DBC00BCFBF3FC0B68002103EB5C03B3FBFCF3B3
:105DCC00F0B54260C360006143618161C16172B62C
:105DDC002BB962B6136810469B689847F0BD294CE6
:105DEC0000F1100C2668002E32D0676879688B425F
:105DFC00B8BF3D461ADBFA684AB15B1ACCF80430DE
:105E0C00516815468B421FDA436999420EDC5B1AC6
:105E1C004361A368C3F80CC083610023C36123688A
:105E2C00C4F808C00133236062B6D7E7AA68CAB1C8
:105E3C00CB1A01366B60C2F80CC0C5F808C0C5613E
:105E4C008261266062B6C9E7D268002AD5D1DBE749
:105E5C0001238661C6612360C4F804C0C4F808C07D
:105E6C0062B6BBE7CB1A6B60236882610133C761F2
:105E7C00C7F808C02360C4F804C062B6AEE700BF20
:105E8C007C0100208001002070B58EB008AC064665
:105E9C000021204600F01CF80B4B31460CAA0C9349
:105EAC00684601230D94FFF773FF204600F02AF893
:105EBC006846FFF727FF054B20466D460C9300F014
:105ECC0035F80EB070BD00BF488520005C85200001
:105EDC000023036043608360C160704700B572B6F5
:105EEC0000F10C0151E8002F02F1010241E80023FE
:105EFC00002BF7D1002A01DD62B600BD00F0D2FB09
:105F0C00FBE700BF00B572B600F10C0151E8002FA1
:105F1C00A2F1010241E80023002BF7D1002A01DB9A
:105F2C0062B600BD00F02AF8FBE700BF00B572B600
:105F3C0000F0CAFA00BD00BF40F290120023C2F27A
:105F4C000002D36013605360936040F2A412C2F25B
:105F5C000002136053607047884200B509D0036992
:105F6C004BB100230B6150F80C3FCB68C96802F0B1
:105F7C00C3F862B600BD01230361F2E75C492DE969
:105F8C00F045CB68CB681A68CB68CB6802F11C066D
:105F9C009E4263D00B68012B00F08380146B002CA5
:105FAC0072D0556B002D00F08180A561D2F834C001
:105FBC00013BCCF814400B60D0F800800323136134
:105FCC00B8F1000F25D0D0F804A002F12007DAF8C0
:105FDC000430D2F820C00AF104059C452EDA534651
:105FEC00D5F800E0D2F820C0E6451BDC836808F148
:105FFC0001089E61136300235363C0F80080866020
:10600C00CB685061196810460122FFF7A5FFBDE867
:10601C00F0850123C2F83080C2F8348003604660FA
:10602C008660EDE75C69002C56D008F10108A6618A
:10603C005E6153631463C0F80080E1E7DAF818304E
:10604C0023B9CCE79C69002CCAD02346D3F804E0D2
:10605C00D7F800C01D1DE645F4DDC1E70B687BB128
:10606C00012B30D0D1F804C00024DCF818E0013B3F
:10607C00C1F804E00B60CEF81440C1F80CC09BE7EB
:10608C009C46C1F80CC097E7002B95D0D1F804C002
:10609C00013BDCF818C00B60C1F804C0CCF814400C
:1060AC008AE700234B608B600B6085E7002B83D065
:1060BC00D1F808C0013BDCF814C00B60C1F808C073
:1060CC00CCF8185078E7D1F804C000234B608B60F3
:1060DC000B60C1F80CC06FE708F101081463C2F83B
:1060EC0034A0CAF81460C0F80080466088E700BF8E
:1060FC00900100202DE9F045044672B6614B6248D0
:10610C00196804F11C0701311960C368C368002BBE
:10611C0064D0D0F80080B8F1000F1FD0D0F804A0E4
:10612C0004F12006DAF80410236A0AF104059942F6
:10613C0056DD5346D5F800C0216A8C4569DC83686E
:10614C009F612363002363630368876001330360EB
:10615C004E4B18687AB9A260BDE8F0850123C4F8EB
:10616C003080C4F83480036047608760474B186800
:10617C000AB9F0E7013212F0030FFBD14568043283
:10618C000F2A98BF10222B46002D76D0696802F199
:10619C00100C8C4507D9914205D0DB68002B6CD0D4
:1061AC0059686145F7D3891A5960C168891AC16069
:1061BC00596871B90668012E36D09F68002F42D0FD
:1061CC00DD68002D4BD0FD60D968013E06608F6004
:1061DC0059681B6858185A50021DBCE7C760C5E7C0
:1061EC00DAF81830002BA4D0D3F804C031681D1D88
:1061FC008C459FDC996900299CD00B46D3F804C0D0
:10620C0031681D1D8C45F5DDD5F800C0216A8C4523
:10621C0095DD596969B108F101088F615F616363AC
:10622C002163C0F80080A1E701604160816059687A
:10623C00CFE7036821630133C4F834A0CAF81470A3
:10624C000360476092E7002EC3D0D5F80CC0013E26
:10625C000660C0F804C0CCF808105968B9E7002EE5
:10626C00B7D0D0F808C0013EDCF808C00660C0F812
:10627C0008C0CCF80C105968ABE7FEF719FF0022E8
:10628C0069E700BFA0010020900100206000002001
:10629C00F0B572B63D4BDA68DA681068DA681A68DD
:1062AC00002A3DD059686FF0004CD1F804E0E64567
:1062BC0036D0012AD3F80CE055D0D1F818C0002400
:1062CC00013AC3F804C01A60CCF814401E682F4A77
:1062DC00D960002E2AD057680EF104057A68DEF8D2
:1062EC0004103C1D914243DBBA69002A40D0D2F81D
:1062FC0004C02968141D8C4523DDD4F800C0DEF8D9
:10630C0004108C4522DC9A68C2F818E0CEF81420F0
:10631C000022CEF818201A68C3F808E001321A607F
:10632C00DB6801221968FFF717FEF0BD0121CEF8DA
:10633C001460CEF818601160C2F804E0C2F808E0EE
:10634C00EEE791690029D8D00A46D0E7516989B1A6
:10635C000136C1F818E0C2F814E0CEF81820CEF8D7
:10636C0014101E60DCE700225A609A601A60ADE7D8
:10637C003A46C2E71A68CEF814100132CEF81870FB
:10638C00C7F814E01A60C3F804E0C9E790010020D4
:10639C0030B5114D114C2A682368012B06D962B611
:1063AC0030BF002AF8D0FFF773FFF4E772B60C4C3D
:1063BC000C48FEF725FE0A250B48FEF721FE25604A
:1063CC000A48FEF71DFE0848FEF71AFE256001F08C
:1063DC00E1FB30BF002030BD90010020A001002067
:1063EC00380000209485200064832000B0852000B4
:1063FC00344BF0B5DA681C681068DA682CB9DB68C5
:10640C0001221968FFF7A8FDF0BDD3F80CE05F6816
:10641C000EF104067A68DEF804103D1D914243DB50
:10642C00BA69002A40D0D2F804C03168151D8C45D9
:10643C001FDDD5F800C0DEF804108C451EDC9A6810
:10644C001C68C2F818E0CEF8142001340022CEF8F3
:10645C0018201C60C3F808E04CB1012C1BD05C6800
:10646C000021A2695A6051611A68013A1A60DC6015
:10647C00C5E791690029DCD00A46D4E75169A9B176
:10648C000134C1F818E0C2F814E0CEF81820CEF8A8
:10649C0014101C60E0E700225C689A605A601A686D
:1064AC00DC60013A1A60AAE73A46C2E71C68CEF8EB
:1064BC0014100134CEF81870C7F814E01C60C3F83F
:1064CC0004E0C9E7900100202DE9F04F434D04464C
:1064DC00EB680368002B74D000264FF001082F46A0
:1064EC00012B40D06268013B9169236061604E6171
:1064FC001268C2F81080EB68EB68566102F11C0C54
:10650C00002B26D0D7F800A0BAF1000F30D0D7F866
:10651C00049002F1200ED9F80410136A09F104005A
:10652C0099422EDD4B460068116A88423CDCAB6810
:10653C00C3F818C013632B6856630133C5F808C041
:10654C002B60FFF755FF72B62368002BC8D1BDE84E
:10655C00F08FC7F80CC0FFF74BFF72B62368002B07
:10656C00F5D0012BBED16268A66066602660BFE7DD
:10657C0016635663C7F80080C7F804C0C7F808C094
:10658C00E9E7D9F8183023B9CCE799690029CAD0C2
:10659C000B46D3F804B0DEF80010181D8B45F4DD63
:1065AC000068116A8842C2DD596961B10AF1010AB9
:1065BC00C1F818C0C3F814C053631163C5F800A028
:1065CC00C9E762B6C3E72B6811630133C2F8349094
:1065DC00C9F814C02B60C5F804C0BCE790010020BA
:1065EC00C368036910B5012B18D00369B3B12C4BE8
:1065FC00DA68D96800F11C0291421CD01A68012A91
:10660C0029D0016B002935D0446B002C3FD08C6114
:10661C00D0F834C0013ACCF814101A600369012B7D
:10662C0001D062B610BD026A6FF000439A42F8D0F6
:10663C00FFF7DEFEF6E71A68CAB1012A10D05968D6
:10664C000024D1F818C0013AC3F804C01A60CCF881
:10665C001440D960E2E700225A609A601A60DDE7C4
:10666C00596800225A609A601A60D960D6E71146C0
:10667C00D960D3E7002AD1D0D3F804C0013ADCF8B2
:10668C0018C01A60C3F804C0CCF81410C6E7002A6E
:10669C00C4D09968013A49691A6099608C61BDE768
:1066AC00900100203A4BF0B5DA680268002A37D026
:1066BC00012A43D041684FF0000ED1F818C0013ABE
:1066CC00C0F804C00260CCF814E00968012008612D
:1066DC00D3F80CC0DD6800224A6101F11C042C4A7D
:1066EC00002D1FD01668002E20D0576801F1200510
:1066FC007A68086A07F1040E904225DA3A46DEF809
:10670C0000C0086A84452EDC9A6894610A630022F2
:10671C004A631A689C6001321A60FFF769FE00E058
:10672C0062B6F0BDD460FFF763FEFAE70E634E630A
:10673C00106054609460FFF75BFEF2E70022416842
:10674C00826042600260C0E7BA6922B9D6E79069FC
:10675C000028D4D00246D2F804C0286802F1040EF6
:10676C008445F4DDCBE7506940B101368461546156
:10677C004A6308631E60FFF73BFED2E71A680863A2
:10678C0001324F637C611A605C60FFF731FEC8E731
:10679C00900100202DE9F04172B69E4BDA68DA6860
:1067AC00D9681268D3F80CC002F11C018C4500F0BA
:1067BC009E801968012900F0DF80146B002C00F01A
:1067CC00AE80556B002D00F0EA80A561D2F834C084
:1067DC000139CCF8144019609168086004211161EA
:1067EC008D490868013808609169002900F0918092
:1067FC00916901240C61D2F818C0D868D868854911
:10680C000CF11C0570B30F68002F00F0A180D1F8BB
:10681C0004800CF12006D8F80410DCF8200008F1F4
:10682C0004048842C0F2DD80D8F81810002900F06A
:10683C00D880D1F804E030680C1D86457DDDD4F895
:10684C0000E0DCF82000864500F38A8099681C681B
:10685C008D61CCF8301001340021CCF834101C6060
:10686C009D6001E00C68CD60002191616949D86898
:10687C003CB9DB68104619680122FFF76DFBBDE8D7
:10688C00F081D1F80CE04F680EF104067868DEF860
:10689C0004103D1D884200F3A280B969002900F064
:1068AC009E80D1F804C030680D1D84454BDDD5F8B1
:1068BC0000C0DEF80400844563DC99681C68C1F8EC
:1068CC0018E0CEF8141001340021CEF818101C601A
:1068DC00C3F808E04CB1012C6FD05C680020A169B2
:1068EC0059604861196801391960DC60C1E71968A1
:1068FC0089B101296AD0D3F804C00024DCF818E06F
:10690C000139C3F804E01960CEF81440C3F80CC088
:10691C0062E71C68AAE78C46C3F80CC05CE7002948
:10692C003FF45AAFD3F804C00139DCF818C0196031
:10693C00C3F804C0CCF814404EE7886900283FF433
:10694C007EAF014675E788690028B0D00146A8E7FC
:10695C00CCF83070CCF834700C604D608D6083E7EF
:10696C00486900283FD07C1C85614D61CCF83410FF
:10697C00CCF830001C6077E70021596099601960F1
:10698C002AE74869002839D00134C0F818E0C1F86A
:10699C0014E0CEF81810CEF814001C609AE7002909
:1069AC003FF41AAFD3F808C00139DCF814C01960F1
:1069BC00C3F808C0CCF818500EE700215C68996049
:1069CC0059601968DC600139196052E7D3F804C0CA
:1069DC000021596099601960C3F80CC0FCE6394677
:1069EC0065E741462BE71C68CCF830000134CCF845
:1069FC003480C8F814501C605D6035E71C68CEF814
:106A0C0014000134CEF81870C7F814E01C60C3F8F9
:106A1C0004E05FE790010020A0010020704700BF58
:106A2C00C369426A0133C361D1F88C30D318436215
:106A3C000023C1F88C3081F8803070470023C3618B
:106A4C00036243628362C362036343638363C3630E
:106A5C00704700BF48F63401C4F2080148F6300212
:106A6C00D1F800C0C4F2080248F62C0370B5C4F289
:106A7C00080314681D680CF040050D6004F0020159
:106A8C00116000221CF0040F1A6037D048F26C63BE
:106A9C00C4F208031B68032B2AD948F20003C4F282
:106AAC0008031A68D2B212F0800F21D153F82230A9
:106ABC0013F0800F1CD0426E08214FF0010602F13A
:106ACC00100350F8234004F18005D5E84FCFC5E8FA
:106ADC00436F002BF9D11CF0FF0F10D0013211F1D4
:106AEC00FF3102F00702EAD1013202F007024266DE
:106AFC0048F63803C4F20803ED221A6070BD013267
:106B0C0002F007024266002CF2D048F62801C4F2CB
:106B1C0008010B68DBB2237033B101230A68E2541D
:106B2C00227801339342F9D948F63803C4F20803AA
:106B3C00ED221A6023780B3B002B0DDDC4F88C3052
:106B4C006178036801F007019B682246984700288A
:106B5C00D4D184F88000D1E70023C4F88C3084F8B9
:106B6C008030CBE70A4B01685A6800B5914209D0D6
:106B7C000848FEF745FA0848FEF742FA074B0A2286
:106B8C001A6000BD18680028F2D0FFF763FFF8E721
:106B9C00BC010020F4852000648320003800002014
:106BAC0030B581B0364B186843683BB15A68B32A8C
:106BBC000AD8A42A08D0DB68002BF7D10091FEF785
:106BCC0077FA002000991FE0A43A5A60C268A43AF0
:106BDC00C2605A688AB9D0F800C0BCF1010F2AD043
:106BEC009C68002C2CD0DD68002D39D0E560DA686B
:106BFC0094600268013A02605A681B684FF0A40C5A
:106C0C00981843F802C00430049B059AD218069BCE
:106C1C00C0F88410D2180023027080F88030C0F8BD
:106C2C008C20C0F89000C0F89430C0F89800C0F8E0
:106C3C009C3001B030BD4260826002605A68DCE773
:106C4C00BCF1000FD9D0D0F804C0DCF80CC0C0F8EF
:106C5C0004C0CCF808200268013A02605A68CCE7FC
:106C6C00BCF1000FC9D0D0F808C0DCF808C0C0F8DF
:106C7C0008C0CCF80C200268013A02605A68BCE7E4
:106C8C0060000020F0B58AB000293CD0012908BF73
:106C9C00046835D011F0010F3BD101394B08056860
:106CAC0033D0012B05FB05F428D013F0010F52D182
:106CBC00013B5A087DD0012A04FB04F61CD012F0CB
:106CCC00010F7AD1013A520800F0A580012A06FB87
:106CDC0006F70FD012F0010F40F0AB8007FB07F363
:106CEC000AA8013A40F8283D51086846FFF7CAFF48
:106CFC0000FB07F707FB06F606FB04F405FB04F4A0
:106D0C0020460AB0F0BD0124FAE7012405FB04F487
:106D1C00F6E74B080468F6D0012B04FB04F4EFD023
:106D2C0013F0010F31D1013B5A082AD0012A04FB80
:106D3C0004F5E3D012F0010F55D105FB05F30AA8B9
:106D4C00013A40F8103D5108FFF79CFF00FB05F598
:106D5C0005FB04F4D4E78B08012B04FB04F4CDD021
:106D6C0013F0010F4BD104FB04F20AA8013B40F8CD
:106D7C00182D5908FFF786FF00FB04F405FB04F4FB
:106D8C00BEE7012505FB04F4BAE78B08012B04FBD5
:106D9C0004F4B5D013F0010F41D104FB04F20AA89E
:106DAC00013B40F8082D5908FFF76CFF00FB04F479
:106DBC00A6E7012606FB04F4A0E79B08012B06FBC3
:106DCC0006F699D013F0010F3FD106FB06F20AA884
:106DDC00013B40F8202D5908FFF754FF00FB06F645
:106DEC0006FB04F48AE705FB05F50AA840F80C5DE0
:106DFC009908FFF747FF054605FB04F480E704FB01
:106E0C0004F40AA840F8144DC908FFF73BFF0446E8
:106E1C0005FB04F474E7012707FB06F66CE704FB9B
:106E2C0004F40AA840F8044DC908FFF72BFF0446E8
:106E3C0066E707FB07F70AA840F8247D5108FFF71F
:106E4C0021FF074607FB06F656E706FB06F60AA8DF
:106E5C0040F81C6D5908FFF715FF064606FB04F4B5
:106E6C004CE700BF2DE9F04FD0B036902F914A7807
:106E7C008B7842EA0323379348F22463C4F2080365
:106E8C001A6842F00C021A6042F2A803C4F20D0315
:106E9C001A6842F001021A6042F2AC03C4F20D030C
:106EAC001A6842F001021A6042F2B003C4F20D03F8
:106EBC001A6842F001021A6048F63803EE22C4F256
:106ECC0008031A6048F27062C4F208021368002BBF
:106EDC00FCD12F98017848F62800C4F20800016014
:106EEC00023908D0DDF8BCC001231CF803200133A3
:106EFC008B420260F9D9042350A840F8043D0121CB
:106F0C00FFF7C0FE40F26401C2F2000140F2B81279
:106F1C000968C2F20002136844F66D6C14910021EA
:106F2C001B02289004916046279148F6140248F6FB
:106F3C0010013294339534963597C4F20801C4F29B
:106F4C0008020593C4F2C610032348F2646E48F29B
:106F5C004C6C0E91119231933090C4F2080EC4F225
:106F6C00080C51465A46309C149F289804FB07F392
:106F7C0003F540533933B3F1FF3F28BF013314936A
:106F8C00149CB3FBF0F300FB134303EB83039B0153
:106F9C00B3F5A07F80F02F824FF4205A4FF0000BF6
:106FAC00CDF820A0CDF824B0DDF838B00020CBF817
:106FBC000000119B48F61800C4F208001B68076813
:106FCC0048F61C00C4F20800046838021C94002423
:106FDC001B940A931BAC18CC13EB000A48F6200345
:106FEC000A9FC4F208031B6844F1000B1AEB070A52
:106FFC004BF1000B1C0A1B061E941D931DAC18CCE8
:10700C001AEB030A48F62403C4F208031B684BEB83
:10701C00040B1F0C1B042297219321AC18CC1AEBE8
:10702C00030A4BEB040B04AC18CC1AEB030A4BEB26
:10703C00040B08AC18CC1AEB030A4BEB040BDEF870
:10704C00003013F0010FFAD048F6180448F61C076C
:10705C0048F6200048F624038DE80600C4F2080424
:10706C00C4F20807C4F20800C4F20803CDF854A017
:10707C00CDF858B008940A970C909B46DCF8003079
:10708C0013F0100F00F0B4810E990022119B089C94
:10709C000A60D3F800A00A9D23680C9E2C681B0282
:1070AC003768D118904644F1000211EB0A03A1464F
:1070BC0042F100043D0A3F06DBF800000195009701
:1070CC009DE8C0009B1944EB07040504060C5B19F2
:1070DC0004A903C944EB06041B1844EB01041699DC
:1070EC00A142CBDC02D1159A9A42C7D848F6380394
:1070FC00C4F20803EA201860DCF800309DE80600B2
:10710C0013F0080F0ED13198042805D8319B289C18
:10711C000133640031932894279F0137032F27975D
:10712C007FF421AF149840F26401C2F200010860B0
:10713C00279A3798022A8CBF0023012310F0200FC6
:10714C0032AD30CD34AFC0CF00F05D81002B40F0BC
:10715C00328301214EAA2791289248F61408404602
:10716C0048F2646132943395C4F20800C4F2080109
:10717C0048F24C680C902191C4F2080848F2246340
:10718C00C4F208031A68012142F00C021A6042F2A0
:10719C00A803C4F20D031A68289842F001021A6081
:1071AC0042F2AC03C4F20D031A6840F2B81442F078
:1071BC0001021A6042F2B003C4F20D031A68C2F263
:1071CC00000442F001021A6004234E93FFF75AFDAB
:1071DC0040F264022368C2F2000212681B02109390
:1071EC0048F6100300250E92C4F2080344F66D62B3
:1071FC000321C4F2C61215900F95149511931B918F
:10720C001D9232AA06CA1D980E9C159D00FB04F314
:10721C0003F540533933B3F1FF3F28BF01330E93CD
:10722C000E98B3FBF5F305FB130303EB83039B01F0
:10723C00B3F5A07F80F09D824FF420530024069379
:10724C000794119D4FF00009DDF830A048F61803A3
:10725C00C5F80090C4F20803DAF800C01C6848F6C0
:10726C001C034FEA0429C4F208030FAD30CD14EB14
:10727C00090AD3F800E045F1000B48F620031AEB9D
:10728C000C0A4BF1000BC4F2080300251868CDF86A
:10729C004CE0129512AD30CD48F624031AEB040ADB
:1072AC004BEB050BC4F20803050A00061B6817908C
:1072BC00189517AD30CD1AEB040A4BEB050B4FEAC2
:1072CC0013491B04CDF86890199319AC18CC1AEB20
:1072DC00030A4BEB040B084606AD30CD11461AEBF6
:1072EC00040A219A4BEB050B136813F0010FFBD02A
:1072FC0048F6200C0A4648F61C05014648F62403BD
:10730C00604648F61809C4F20805C4F20800C4F235
:10731C000803C4F20809069508900A93D8F80030BF
:10732C0013F0100F40F0B5801B9B042B05D81B9855
:10733C00159B01305B001B901593149C0134032C9E
:10734C0014947FF460AF3291339240F264030E9A3E
:10735C00C2F200031A600023279D0135042D2795E6
:10736C007FF40CAFFBB942F2A803C4F20D031A6808
:10737C0042F001021A6042F2AC03C4F20D031A6827
:10738C0042F001021A6042F2B003C4F20D031A6813
:10739C0042F001021A6048F22463C4F208031A682E
:1073AC0022F00C021A600024DFF83466DFF8340691
:1073BC000DF1F808FDF724FE2F9942463046FDF7F3
:1073CC00C1FE50AF3B18002203F8482C4046FDF795
:1073DC0017FEDFF81406FDF713FEDFF81006FDF7B5
:1073EC000FFEDFF80C06FDF70BFE0A23336049E0B5
:1073FC009DE8060087E62020A3FB00ABCDF820A07B
:10740C00CDF824B0D0E57BB148F63001C4F20801C8
:10741C00086848F6300210F0020FC4F20802F7D0E8
:10742C00116821F00201116042F2A802C4F20D02AF
:10743C00116841F00101116042F2AC02C4F20D027C
:10744C00116841F00101116042F2B002C4F20D0268
:10745C00116841F00101116048F22462C4F2080283
:10746C00116821F00C011160002B9CD02F9DD5F8D8
:10747C008C40002C98D0369E336A01333362B36A49
:10748C001B19B3622F9800F061FE204650B0BDE886
:10749C00F08F119C00250C9E25603568D9F80030C2
:1074AC00069F08980A991B02D7F800E00FAFC0CFCF
:1074BC00D0F800C00868F11847F100024B1942F1EE
:1074CC0000044FEA1C2600214FEA0C6C5B18039653
:1074DC00CDF808C002AE60CE44EB0E045B1944EB51
:1074EC0006040604070C9B1944EB0704A3457246DB
:1074FC003FF714AF02D19A453FF610AF48F6380368
:10750C00C4F20803EA201860D8F8003013F0080F12
:10751C003FF40AAF14980E9D40F26409C2F20009C0
:10752C00022832913392C9F800503FF614AF42F260
:10753C00A802C4F20D02136832AD30CD43F0010342
:10754C00136042F2AC02C4F20D02136843F0010363
:10755C00136042F2B002C4F20D02136843F001034F
:10756C00136048F22462C4F20802136823F00C037F
:10757C00136048F28C62C4F20802136823F004030F
:10758C00136048F63402C4F20802136823F00403B3
:10759C00136048F20463C4F20803196820220E91A8
:1075AC0048F630011A60C4F208010A6848F6300344
:1075BC0012F0020FC4F20803F7D01A683294339514
:1075CC0022F002021A6048F61002C4F208020023EC
:1075DC0013600C9C48F6180548F61C03C4F2080509
:1075EC00C4F2080311922268D5F80090D3F800A0D9
:1075FC004FF4B044CDF828A01495002514EB020AE2
:10760C0045F1000B0FAD30CD1AEB04014BEB05022D
:10761C00CDF8209004910592089948F620000D02AF
:10762C0004AA06CA11EB050A42F1000B0A9A0024BF
:10763C00C4F2080048F6240CD0F800E01F94C4F201
:10764C00080C20921FAA06CADCF800901AEB010A5B
:10765C004BEB020B4FEA1E224FEA0E6E2492CDF832
:10766C008CE04FEA194E4FEA094923AD30CDCDF8E5
:10767C0094901AEB040ACDF898E025AA06CA4BEBB5
:10768C00050B1AEB010A4BEB020BCDF818A0CDF849
:10769C001CB032AB0CCB0A960B970892099348F6A8
:1076AC003409C4F2080948F610030024C4F2080394
:1076BC000C9E48F618071C60C4F2080735683B6836
:1076CC0048F61C0AC4F2080A1B0248F6200BDAF82A
:1076DC0000E00FAFC0CFC4F2080B16EB030A48F65C
:1076EC002401DBF800C0C4F2080147F1000B1AEBCF
:1076FC0005034BF10004086800215B184FEA0C6687
:10770C0044EB0E044FEA1C279B194FEA004A44EB4A
:10771C0007044FEA104B13EB0A03079D44EB0B04D1
:10772C00A542724603DC2AD10698984227D9D9F88B
:10773C00000048F6340310F0040FC4F20803B2D072
:10774C0048F63802C4F20802ED2111601A680E994D
:10775C0022F004021A6048F20463C4F208031960B0
:10776C0048F28C63C4F208031A6842F004021A60EF
:10777C007CE62020A3FB00450694079561E508AC48
:10778C0018CC3293339448F204630E9CC4F2080371
:10779C001C6048F28C63C4F2080329912A921A687F
:1077AC002B962C9742F004021A60CDF8B4A0CDF8B9
:1077BC00B8B00123D0E542F2A802C4F20D0213685E
:1077CC0048F6300143F00103136042F2AC02C4F2FC
:1077DC000D021368C4F2080143F00103136042F276
:1077EC00B002C4F20D02136843F00103136048F2B7
:1077FC002462C4F20802136823F00C03136048F2ED
:10780C008C62C4F20802136823F00403136048F678
:10781C003402C4F20802136823F00403136048F224
:10782C000463C4F20803D3F800802022CDF844800E
:10783C001A600A6848F6300312F0020FC4F208030B
:10784C00F7D01A6848F610094846C4F2080000211F
:10785C0022F0020248F6140C48F6180E1A60C4F214
:10786C00080C0160C4F2080E149048F61C0ADCF8EF
:10787C000000DEF8002048F62409C4F2080ADAF801
:10788C000030159248F6200B4A46C4F20802C4F2A6
:10789C00080BDBF800800E93136806924FF4B0428D
:1078AC00CDF820800A93002312EB0008159A43F1BF
:1078BC000009100218EB00080E9B089849F100090A
:1078CC0018EB010849EB0309030A02060A9818EBA6
:1078DC00020849EB03090204030C18EB020849EBFC
:1078EC00030904AB0CCB18EB020849EB030948F66F
:1078FC003400CDF82080CDF824900A940B95C4F276
:10790C0008000C960D97074648F610030024C4F2A5
:10791C0008031C60DCF80000DEF800300021DAF807
:10792C0000401B02CD1844F100062B18DBF80000B8
:10793C0046F100044FEA10280006CDF8EC803A908E
:10794C003AAE60CE5B1944EB060448F62406C4F24A
:10795C000806306804AE60CE4FEA004813EB08030B
:10796C004FEA104944EB09045B1944EB0604099EE9
:10797C00A64203DC1BD10898984218D9386848F6FF
:10798C00340310F0040FC4F20803BDD01A4648F6B5
:10799C003803C4F20803ED2119601368119923F020
:1079AC000403136048F20463C4F20803D7E6119A87
:1079BC0048F20463C4F208031A6048F28C63C4F200
:1079CC0008031A680DF59C7842F004021A60012332
:1079DC000AAD30CD2793CDF8A080FFF7BEBB00BF1A
:1079EC00380000202086200050862000348620009D
:1079FC00648320002DE9F04583B006460C461746FB
:107A0C000A9D9846002300930193314622463B463B
:107A1C000295FFF7C5F8824600285CD0742D5DD91D
:107A2C00762374250933DBB28AF800303F780222C2
:107A3C0047F4184747F04007BBB28AF801301B0ADD
:107A4C008AF8023000238AF803304FF0FF338AF8AB
:107A5C0004308AF8053021460AF1060000F0F4FBE8
:107A6C0002220AF1080006F1140100F0EDFB237864
:107A7C00FF2B3AD16378FF2B14BF2023002327F070
:107A8C00200743EA07078AF801703F0A8AF8027058
:107A9C000AF10A0041462A4600F0D6FB2378FF2B58
:107AAC0021D16278FF2A14BF202200229AF80210FA
:107ABC009AF80130CAF88C5043EA012323F02003D2
:107ACC0042EA03038AF801301B0A8AF80230304676
:107ADC005146FFF7C7F903B0BDE8F08535F07F02DA
:107AEC0005D08A23A0E72022E0E72023C7E7AB1CC0
:107AFC00DBB297E7EFF3038000F03F0001B500F035
:107B0C0035F8BDE801404FF001034FEA03630D491E
:107B1C0041F001010C4AA2F1010200B50EB42DE9AD
:107B2C000F10704707DF07980798079800F400704C
:107B3C004FEAD010684400F120008546BFF36F8FE8
:107B4C0000BD7047307B2000597B200000B540F20F
:107B5C00C41381B001AAC2F2000342F8040D53F819
:107B6C0020306846984701B000BD00BF00B5054BFA
:107B7C0081B053F8203000900BB16846984701B0A3
:107B8C0000BD00BF78000020704700BF00B500F0BA
:107B9C0023F800BD48F2406000B5C0F22000FDF7AC
:107BAC002FFA48F26430C0F22000FDF729FA40F2B7
:107BBC003803C2F200030A221A604EF60C53CEF2BE
:107BCC000003196840F2040289B2C0F2FA5241EA89
:107BDC0002021A6000BD00BF2DE9F04172B61E4DC5
:107BEC001E4E15F8014C4FF000081D4F8CB1092C9E
:107BFC002AD00A2C1BD0336820460133336000F0A6
:107C0C004BF833684F2B08DC013515F8014C002C70
:107C1C00EDD1FFF7BFFFBDE8F0810D2000F03CF87F
:107C2C000A2000F039F80135C6F80080EDE70D2088
:107C3C0000F032F8204600F02FF83B68C6F80080C0
:107C4C0001333B600135E0E7204600F025F833684E
:107C5C00013508333360D8E755862000B001002089
:107C6C00B401002030B50B4C0546236823B1DA680B
:107C7C00013ADA60DA683AB1636823B15A68284687
:107C8C00DA601B69984730BD5A68DA601B699847FF
:107C9C00F2E700BFC4020020164B81B01B78C0B2C3
:107CAC002BB3EFF31082144BD2B21A7072B649F2A6
:107CBC0038030321C4F20803196049F29803C4F293
:107CCC000803186049F24403C4F20803196841F030
:107CDC000101196000230093009BFE2B05DC009B27
:107CEC0001330093009BFE2BF9DD02B962B601B0A3
:107CFC00704700BF76000020740000204378053BDD
:107D0C001D2B10D8DFE803F011570F0F400F0F0F8A
:107D1C000F0F0F0F0F0F0F0F0F0F0F0F0F0F0F0F67
:107D2C000F0F0F20226D002070470378002BFAD123
:107D3C008378C27843EA022249F20003C4F20803B2
:107D4C001A60364B03221A600120EDE70378A12B51
:107D5C00E9D18378C27853EA0222E4D1304B196816
:107D6C001A715A7162F31F0108229A712D4A196017
:107D7C0013608379C279012043EA02222A4B072A35
:107D8C0028BF07221A60CFE70378002BCBD10379E9
:107D9C00427953EA0222C6D18379C27953EA02228C
:107DAC00C1D18378C07843EA00200128BBD11B4B9A
:107DBC0004221A60B8E70378802BB4D1C378012B66
:107DCC001ED0022BAFD1194A164B1A608379C27997
:107DDC00012043EA0222144B432A28BF43221A6093
:107DEC00A2E70378212B9ED18379C27953EA022230
:107DFC0099D182780E4B02F001021A70012093E7A0
:107E0C000C49084A11608279C179184642EA01216D
:107E1C00054A122928BF1221116085E77000002045
:107E2C00DC020020D8020020E4020020D0842000D4
:107E3C00750000201485200070B5574A574900235F
:107E4C00146808681360564A82B00B60136018B14E
:107E5C0010F0040F40F09D80002C4FD014F0010F57
:107E6C004CD0504B1A783AB94F4A127822B10122B1
:107E7C001A702020FFF710FF49F23803C4F20803F0
:107E8C0000221C681A6049F24403C4F208031B6800
:107E9C0013F0010F3CD049F25803C4F208031B68DD
:107EAC0049F28001DBB26846C4F20801934206D95C
:107EBC00D1F800C000F802C00132082AF6D1684699
:107ECC00FFF71CFFE0B1DFF8E4C0DCF8003043B191
:107EDC0049F24403C4F208031A6842F040021A60E3
:107EEC001CE049F24403C4F208031A6842F0480249
:107EFC001A6049F23803C4F208031C6002B070BD6A
:107F0C0049F24403C4F208031A6842F060021A6092
:107F1C00DFF898C0DCF80030002BEAD0244E326831
:107F2C00C2B149F28005DCF800100023C4F2080548
:107F3C00C85C0133013A2860C818CCF80000101E48
:107F4C0018BF01201F2B8CBF002000F001003260F5
:107F5C000028EDD17AB949F24403C4F20803196838
:107F6C00CCF8002041F00A01196049F23803C4F240
:107F7C0008031C60C2E749F24403C4F208031A6800
:107F8C0042F002021A6049F23803C4F208031C6082
:107F9C00B4E7FDF759FA5FE7D0020020CC020020CD
:107FAC00D40200207600002075000020D8020020AA
:107FBC00E40200204F4B70B41D6847F2F833C2F254
:107FCC0000034FF440625A6000229A60DA60EA685B
:107FDC001B6002F54062EA605A686B68002B52D055
:107FEC0047F2F83CC2F2000C1E689444B4450CBF36
:107FFC001A461A4604D0D26812B111688C45FAD1CF
:10800C0047F2F831C2F200010C6859687618B44294
:10801C0008D0DB68002B35D0D3F800C05968614418
:10802C008C42F6D119461346BBB147F2F832C2F274
:10803C0000025468D3F804C0A444C2F804C02A68EF
:10804C00012A2ED09C68002C39D0DE68002E2DD051
:10805C00E660DB68013A9C602A6039B147F2F8337C
:10806C00C2F200035B684A68D3184B608546BFF3C5
:10807C006F8F5DF804CB8CF30388BDE8FF5F00BD08
:10808C0070BC704713462A6812BB47F2F831C2F233
:10809C0000018A60CA606960A960012129601146EB
:1080AC00C2E700236B60AB602B60D6E7002AD4D00C
:1080BC00AB68013A9B682A60AB60DE60CDE7002AB2
:1080CC00CBD06B68013ADB682A606B609C60C4E7BC
:1080DC00A96847F2F83CC2F2000CC1F80CC0CCF80D
:1080EC00081001320021CCF80C102A60C5F808C029
:1080FC009AE700BF6000002081B04DF804CD0FF26C
:10810C00340C4CF0010CCDF804C05DF804CB2DE917
:10811C00FF5FEFF3038C4DF804CDC0F800D08D4613
:10812C00BFF36F8F5DF804CB8CF30388BDE8FF5F62
:10813C0062B600BD704700BF40F2E823C2F20003F4
:10814C0000221A605A609A60DA6070473D4B70B436
:10815C001D6850F8043C041F0F2B41D9002240F835
:10816C00044C6360A260E260EA68D318EB606B6851
:10817C0050F804CC6068002B35D01E686044B042C7
:10818C000CBF1A461A4604D0D26812B11168884244
:10819C00FAD159687618B44507D0DB68002B21D08A
:1081AC001868596841188C45F7D11946134693B194
:1081BC0060685A6882186260286801281DD09A6825
:1081CC00002A1FD0DE68002E31D0D660DB689A60A2
:1081DC002B68013B2B6019B14A686368D3184B605C
:1081EC0070BC704713462968B1B9A160E1602A6878
:1081FC006C600132AC602A60D9E700236B60AB6025
:10820C002B60E8E70028E6D06B68DB686B609A604F
:10821C002B68013B2B60DEE7AA680021D460AA68BA
:10822C00E160A2602A68AC6001322A60BFE70028D6
:10823C00D1D0AB689B68AB60DE602B68013B2B60D8
:10824C00C9E700BF600000200F2A30B405460C4679
:10825C0042D941EA000313F0030F02BF14468C46C7
:10826C00034609D0002314F803C005F803C00133FA
:10827C009A42F8D130BC7047DCF80050103C1D60BD
:10828C00DCF804505D60DCF808509D60DCF80C50A4
:10829C000CF1100CDD6010330F2CEDD8A2F1100492
:1082AC0004F00F0224F00F04103405190C19032AE2
:1082BC0012D9002354F803C045F803C00433C3EBB0
:1082CC00020CBCF1030FF5D8043A22F0030304337B
:1082DC00ED18E41802F00302002AC3D1CAE700BF6C
:1082EC00074B10B51A6852B9064C01221A60636824
:1082FC002BB10434984754F8043F002BFAD110BD2D
:08830C00040000208C86200013
:108314000000000000000000D5492000494A200068
:10832400994A2000D14A200000000000000000000B
:10833400D5492000494A2000994A2000D14A20000A
:108344000000000000000000FD4A20002A00000098
:108354005265636569766564206275666665720058
:108364000A0000003D3D3D3D3D3D3D3D3D3D3D3D23
:108374003D3D3D3D3D3D3D3D3D0000005265636555
:108384006976656420000000206279746573206F4B
:1083940066207061796C6F61642066726F6D200075
:1083A4003A000000203A000048656C6C6F2C2049AC
:1083B40020616D207468652073656E6465722E009B
:1083C400492077696C6C2073656E642061206D654B
:1083D400737361676520657665727920000000001B
:1083E400206D6963726F7365636F6E64732E000032
:1083F40053656E64696E67206D6573736167653A72
:108404002000000053656E740000000030204865B1
:108414006C6C6F2C20576F726C64210048656C6C17
:108424006F2C204920616D20746865207265636536
:10843400697665722E000000492077696C6C2061B2
:108444007474616368206D7973656C6620746F2041
:10845400746865204E494320616E64207072696EB1
:1084640074206576657279206D6573736167652024
:1084740049206765742E000048656C6C6F206D613F
:10848400696E00004D4D553A3A616C6C6F63282952
:10849400206661696C656421000000005075726596
:1084A400205669727475616C206D6574686F642000
:1084B40063616C6C65642100303132333435363796
:1084C4003839616263646566000000000902430094
:1084D400020100A0190904000001020201000524A0
:1084E40000100104240202052406000105240100F1
:1084F400010705820340004009040100020A00004C
:1085040000070583022000000705040200010000A3
:108514001201000202000020501D1C600300000034
:10852400000100000000000000000000D549200008
:10853400494A2000994A2000D14A20000000000046
:1085440000000000B95B2000E55B2000D95B20003F
:108554000000000000000000AD5B2000F55B20007F
:10856400915020005468726561643A3A7061737383
:10857400203D3E207468726561642028000000007C
:1085840029206E6F742072656164792100000000F7
:10859400546865206C61737420746872656164202A
:1085A4006861732065786974656421005265626F3F
:1085B4006F74696E6720746865206D616368696EA5
:1085C40065202E2E2E000000526573756D652063A4
:1085D400616C6C656420666F7220756E7375737060
:1085E400656E646564206F626A65637421000000CF
:1085F400526164696F3A3A696E745F68616E646C63
:1086040065723A2068616E646C6572206E6F7420C6
:1086140061737369676E65642100000043433235FA
:1086240033383A3A73656E64286275663D0000001B
:10863400203D3E206661696C656421004D6163687C
:10864400696E653A3A7265626F6F7428290000009A
:0886540050414E4943210A0088
:10865C00FFFFFFFF7D422000F1422000AD442000CF
:10866C00DD442000A94C2000B14F2000C55B200048
:10867C00455F2000296A2000458120000000000091
:08868C00FFFFFFFF00000000EA
:040000050020411C7A
:020000040027D3
:0CFFD400FFFFFFEF000000000000200015
:00000001FF
